:040000000C944D000F
:14008C00042F180923414007000174220000CFEFD0E1CDBFCF
:1400A000DEBFC451D0400AEA08830024EEE0F1E011E0EE3039
:1400B400F10711F00192FBCF0083ECE8F0E0A0E0B1E010E0BA
:1400C80000E00BBFEA39F10721F0C89531960D92F9CF0E9421
:1400DC007000FFCF8FEF81BB45C080E091E0E0910C01FF279E
:1400F000E80FF91F408183E020900C01821520F0842F8F77AC
:1401040082BB03C0842F806882BB80910C018F5F80930C01E3
:1401180008EE13E02BD080910C018A3029F544275527209062
:14012C000D013324822D8F5F80930D018AE091E0E22DFF278C
:14014000E80FF91F8081806882BB08EE13E012D080910D018C
:14015400823019F4222420920D014F5F5F4F4230E0E05E07DF
:1401680004F3222420920C01BACF08950E94CF004427552709
:14017C000BC06627772702C06F5F7F4F6433E8E07E07D0F374
:140190004F5F5F4F4017510790F30C94D4007A936A935A9362
:0E01A4004A930895499159916991799108956E
:00000001FF
