:040000000C94460016
:14008C00CFEFD0E1CDBFDEBFC451D0400AEA08830024E0E040
:1400A000F1E011E0E030F10711F00192FBCF0083ECE8F0E0FD
:1400B400A0E0B1E010E000E00BBFEC38F10721F0C89531963C
:1400C8000D92F9CF0E946900FFCF80E584BB0AC080E585BBD1
:1400DC0004EF11E007D0222425BA04EF11E002D0F5CF089519
:1400F0000E948D00442755270BC06627772702C06F5F7F4F92
:140104006433E8E07E07D0F34F5F5F4F4017510790F30C9412
:1401180092007A936A935A934A930895499159916991799108
:02012C00089534
:00000001FF
